:100000000C9458000C9480000C9480000C94800098
:100010000C9480000C9480000C9480000C94800060
:100020000C9480000C9480000C9480000C94800050
:100030000C9480000C9480000C9480000C94800040
:100040000C9416090C9480000C9486090C94600999
:100050000C9480000C9480000C9480000C94800020
:100060000C94B8090C9480000000000025002800C2
:100070002B00040404040404040402020202020229
:10008000030303030303010204081020408001025C
:1000900004081020010204081020000000080002DB
:1000A0000100000304070000000000000000D70A60
:1000B00011241FBECFEFD8E0DEBFCDBF12E0A0E01D
:1000C000B1E0E4E7F8E202C005900D92A83DB10767
:1000D000D9F724E0A8EDB2E001C01D92A139B20722
:1000E000E1F710E0C8E5D0E004C02197FE010E94CE
:1000F000F912C735D107C9F70E945D0B0C9438146B
:100100000C9400000895089590E0FC01E656FF4F1E
:100110002491FC01EA57FF4F3491FC01EE58FF4F48
:10012000E491EE23C9F0222339F0233001F1A8F441
:10013000213019F1223029F1F0E0EE0FFF1FE859CC
:10014000FF4FA591B4918FB7F894EC91611126C03F
:1001500030953E233C938FBF08952730A9F0283077
:10016000C9F0243049F7809180008F7D03C08091D1
:1001700080008F7780938000DFCF84B58F7784BD38
:10018000DBCF84B58F7DFBCF8091B0008F778093DC
:10019000B000D2CF8091B0008F7DF9CF3E2BDACF67
:1001A0003FB7F8948091210390912203A0912303FB
:1001B000B091240326B5A89B05C02F3F19F00196E6
:1001C000A11DB11D3FBFBA2FA92F982F8827BC01B1
:1001D000CD01620F711D811D911D42E0660F771FD9
:1001E000881F991F4A95D1F708958F929F92AF92D9
:1001F000BF92CF92DF92EF92FF924B015C010E947F
:10020000D0006B017C010E94D0006C197D098E0921
:100210009F09683E734081059105A8F321E0821A89
:100220009108A108B10888EEC80E83E0D81EE11C31
:10023000F11C81149104A104B10429F7FF90EF90FF
:10024000DF90CF90BF90AF909F908F90089581E006
:100250000895AF92BF92CF92DF92EF92FF920F93E9
:100260001F93CF93DF936C017B018B01040F151F4C
:10027000EB015E01AE18BF08C017D10759F06991B4
:10028000D601ED91FC910190F081E02DC601099518
:10029000892B79F7C501DF91CF911F910F91FF90C5
:1002A000EF90DF90CF90BF90AF900895FC01538DF9
:1002B000448D252F30E0842F90E0821B930B541740
:1002C00010F0CF96089501970895FC01918D828DCD
:1002D000981761F0A28DAE0FBF2FB11D5D968C9166
:1002E000928D9F5F9F73928F90E008958FEF9FEFA5
:1002F0000895FC01918D828D981731F0828DE80F61
:10030000F11D858D90E008958FEF9FEF0895FC011A
:10031000918D228D892F90E0805C9F4F821B9109E7
:100320008F73992708958BE993E00E94870121E05C
:10033000892B09F420E0822F089580E090E0892B3A
:1003400029F00E94930181110C9400000895FC0192
:10035000A48DA80FB92FB11DA35ABF4F2C91848D26
:1003600090E001968F739927848FA689B7892C9383
:10037000A089B1898C91837080648C93938D848DD6
:10038000981306C00288F389E02D80818F7D8083D9
:100390000895EF92FF920F931F93CF93DF93EC0199
:1003A00081E0888F9B8D8C8D98131AC0E889F9891C
:1003B000808185FF15C09FB7F894EE89FF8960831F
:1003C000E889F98980818370806480839FBF81E0A0
:1003D00090E0DF91CF911F910F91FF90EF900895E2
:1003E000F62E0B8D10E00F5F1F4F0F731127E02EBD
:1003F0008C8D8E110CC00FB607FCFACFE889F989F5
:10040000808185FFF5CFCE010E94A701F1CFEB8D52
:10041000EC0FFD2FF11DE35AFF4FF0829FB7F894C8
:100420000B8FEA89FB8980818062CFCFCF93DF93E6
:10043000EC01888D8823B9F0AA89BB89E889F989FC
:100440008C9185FD03C0808186FD0DC00FB607FC31
:10045000F7CF8C9185FFF2CF808185FFEDCFCE0164
:100460000E94A701E9CFDF91CF9108950895BF922F
:10047000CF92DF92EF92FF920F931F93CF93DF9370
:100480004530D8F4B42E062FEC0110E060E070E0A7
:10049000CB01B116A9F0CC24D62EE72EF82EE88198
:1004A000F9810680F781E02D602FCE010995960134
:1004B000282BC701B9011F5FECCF60E070E0CB01D2
:1004C000DF91CF911F910F91FF90EF90DF90CF9030
:1004D000BF90089508952091F902260F3327331F06
:1004E00021323105ECF420917103FC0190E080E0B1
:1004F000243069F082E00895A091F9022191AC01C5
:1005000047525D4FA40FB52FB11D2C93019686174E
:1005100098F38091F902680F6093F90280E00895E2
:1005200081E008951092710381E08093700310922E
:100530004B0361E082E10E94840061E083E10E945C
:100540008400E9EBF0E080818E7F808380818D7F65
:10055000808388E48093B80085E48093BC0008958C
:1005600010924A03109249031092780310929A0352
:100570000E94920282E890E09093480380934703A0
:1005800083E890E090934603809345030895CF93CA
:10059000DF9391E09093D8028823B9F0C091B8001E
:1005A000D091BA008091BC008A7B8093BC0060E04F
:1005B00082E10E94840060E083E10E9484000E9446
:1005C0009202D093BA00C093B800DF91CF91089502
:1005D0008F929F92AF92BF92CF92DF92EF92FF9253
:1005E0000F931F93CF93DF93D0919A03D13208F0EA
:1005F000D7C0182FC09199030E94D0006B017C01D5
:100600008091710381116BC082E08093710310931C
:1006100070038FEF80936F0310926E03D0936D037E
:10062000A9E7B3E0EDE4F3E080E0D81391C01092C5
:100630004C0380914C03CC0FC82BC0934C0380918A
:100640004B03813009F088C010924B030E94D00008
:100650006B017C0180914C038093BB0080917303FC
:1006600090917403A0917503B0917603892B8A2B26
:100670008B2BA1F00E94D0000091730310917403A2
:1006800020917503309176036C197D098E099F09BD
:10069000061717072807390708F442C08091BC00E5
:1006A00083FDD8CF85EC8093BC000E94D0006B0105
:1006B0007C0180917103823009F450C080916F03F6
:1006C0008F3F09F46FC080916F03803209F46CC0D2
:1006D00080916F03803309F469C084E026C0809163
:1006E000730390917403A0917503B0917603892BE5
:1006F0008A2B8B2B09F484CF0E94D0008090730347
:1007000090907403A0907503B09076036C197D09E6
:100710008E099F0986169706A806B90608F070CFBD
:10072000809172030E94C70285E0109278031092B4
:100730009A0310927703DF91CF911F910F91FF9051
:10074000EF90DF90CF90BF90AF909F908F900895E3
:100750009D9191938F5F69CF85EEA5CF80917303B3
:1007600090917403A0917503B0917603892B8A2B25
:100770008B2B09F49ECF0E94D0000091730310913F
:10078000740320917503309176036C197D098E09ED
:100790009F09061717072807390708F08ACFC0CF27
:1007A00081E0C3CF80E0C1CF82E0BFCF83E0BDCF87
:1007B000CF92DF92EF92FF920F931F93CF93DF932D
:1007C000D82FC62F613208F098C00E94D0006B016C
:1007D0007C018091710381116BC081E08093710372
:1007E000809370039FEF90936F0310926E039C0FA2
:1007F00090936D0380934C0380914C03DD0FD82BB5
:10080000D0934C0380914B03813009F078C0109253
:100810004B030E94D0006B017C0180914C038093BC
:10082000BB008091730390917403A0917503B09104
:100830007603892B8A2B8B2BA1F00E94D00000918C
:1008400073031091740320917503309176036C1932
:100850007D098E099F09061717072807390708F42D
:1008600048C08091BC0083FDD8CF85EC8093BC004C
:100870000E94D0006B017C0180917103813009F4EA
:1008800040C080916E038C1710F4C0916E03EDE4AC
:10089000F3E0A5E2B3E080E08C1355C08C2FDF912C
:1008A000CF911F910F91FF90EF90DF90CF9008951F
:1008B0008091730390917403A0917503B0917603B6
:1008C000892B8A2B8B2B09F484CF0E94D0000091B6
:1008D00073031091740320917503309176036C19A2
:1008E0007D098E099F09061717072807390708F0A1
:1008F00070CF809172030E94C702C0E0CFCF85EE17
:10090000B5CF8091730390917403A0917503B0915A
:100910007603892B8A2B8B2B09F4AECF0E94D00053
:100920000091730310917403209175033091760345
:100930006C197D098E099F090617170728073907C3
:1009400008F09ACFD6CF91919D938F5FA5CF089550
:10095000E0914A0380914903E81730F4F0E0EB5D41
:10096000FC4F808190E008958FEF9FEF0895909164
:100970004A03809149032FEF3FEF981748F4E92F7E
:10098000F0E0EB5DFC4F208130E09F5F90934A03E5
:10099000C90108958091490390914A03891B990BDD
:1009A0000895CF92DF92EF92FF920F931F93CF9310
:1009B000DF937C01CB018A0120917703222389F008
:1009C000EB016B01C40ED51ECC15DD0569F06991F4
:1009D000D701ED91FC910190F081E02DC7010995BF
:1009E000F3CF642F0E946B02C801DF91CF911F915A
:1009F0000F91FF90EF90DF90CF900895CF93DF930A
:100A00001F92CDB7DEB76983209177032223F9F0D7
:100A100020919A03203258F021E030E0FC0133832A
:100A2000228390E080E00F90DF91CF910895809134
:100A30007803E82FF0E0E758FC4F998190838F5FAF
:100A40008093780380939A0381E090E0ECCF61E09B
:100A5000CE0101960E946B02F7CF81E00C94E80270
:100A6000EF92FF920F931F93CF93DF938C017B0143
:100A7000DC011A968C911A9791E0909377038093FA
:100A800099031092780310929A031E968D919C916F
:100A9000DC01ED91FC910190F081E02DDB016C9186
:100AA0000995CBE8D1E0CE010197F1F7F8018685F1
:100AB0009785DC01ED91FC910190F081E02DD7014B
:100AC00011966C9109952197F1F7F8018685978524
:100AD000DF91CF911F910F91FF90EF900C942D0516
:100AE000CF93DF9300D01F92CDB7DEB71B8290E883
:100AF00099838A83BE016F5F7F4F84E494E00E94F4
:100B000030050F900F900F90DF91CF9108951F93B4
:100B1000CF93DF93162FC4E4D4E0AE85BF859B85C9
:100B200021E0209377039093990310927803109219
:100B30009A03ED91FC9111970190F081E02D682FBF
:100B4000CD0109958E859F85DC01ED91FC91019089
:100B5000F081E02D612F09958E859F85DF91CF91E2
:100B60001F910C942D051F93CF93DF93FC01A6A139
:100B7000B7A1109729F1142FEC0180A591E0909373
:100B80007703809399031092780310929A03ED9162
:100B9000FC9111970190F081E02DCD0109958EA176
:100BA0009FA1DC01ED91FC910190F081E02D612F7E
:100BB00009958EA19FA1DF91CF911F910C942D05D6
:100BC000DF91CF911F910895FC01248131E0309392
:100BD0007703209399031092780310929A038385E8
:100BE000682B88E394E00E94FE0488E394E00C9470
:100BF0002D05CF93DF9300D01F92CDB7DEB71B82B8
:100C000020E429836A83BE016F5F7F4F0E94300515
:100C100081E090E00F900F900F90DF91CF910895B9
:100C2000089590E080E00895CF92DF92EF92FF92D6
:100C30000F931F93CF93DF93FC01A6A1B7A1109749
:100C4000F1F14530E0F5142FEC0180A591E090938F
:100C50007703809399031092780310929A03ED9191
:100C6000FC9111970190F081E02DCD01099580E074
:100C70000E94E802612F88A50E94D80310924A03BF
:100C80008093490300E060E070E0CB011017D1F0E1
:100C9000CC24D62EE72EF82E8EA19FA1DC01ED915B
:100CA000FC910284F385E02D0995BC01990F880B16
:100CB000990B6C297D298E299F290F5FE7CF60E072
:100CC00070E0CB01DF91CF911F910F91FF90EF90DA
:100CD000DF90CF900895CF92DF92EF92FF926A015A
:100CE0007B01422F682F84E694E00E9414066C2159
:100CF0007D218E219F21CC2059F020E04C2D50E009
:100D0000C0FC05C02F5F6A01D594C794F7CFC22EEF
:100D100004C09695879577956795CA94D2F7FF900A
:100D2000EF90DF90CF900895CF93DF93EC018EA1E9
:100D30009FA1009741F128A531E0309377032093DC
:100D400099031092780310929A03DC01ED91FC91C3
:100D50000190F081E02D099580E00E94E80261E0B9
:100D600088A50E94D80310924A03809349038EA15C
:100D70009FA1DC01ED91FC910284F385E02D0995A2
:100D8000DF91CF91089580E0FBCFCF93DF93D82FF1
:100D9000C62F64EF84E694E00E9494065D2F2C2F0A
:100DA00090E06D2F70E0D0FD05C09F5F7595679551
:100DB000D62FF7CF01C0220F9A95EAF7482F422786
:100DC0004523482764EF84E694E0DF91CF910C94AB
:100DD000B305CF93DF93C62F682F84E694E00E947B
:100DE00094068C2390E020E04C2F50E0C0FD05C01D
:100DF0002F5FEA01D595C795F7CF02C095958795E6
:100E00002A95E2F7DF91CF91089564E670E080E0E3
:100E100090E00E94F50060E284EF0E94E9068111F3
:100E2000F4CF80917C048E3201F1843371F723E09A
:100E30004FEF5FEF6FEF70E086EF0E946B0640911F
:100E40007D0428E030E0241B310904C09595879586
:100E5000779567952A95D2F760937E0470937F0407
:100E60008093800490938104089522E04FEF5FEF18
:100E700060E070E086EF0E946B06609382047093DE
:100E80008304809384049093850408950F931F93A3
:100E9000CF938C01C62F0E94E4056C2F6460C801BB
:100EA0000E94E4056C2F6B7FC8010E94E40583EC6F
:100EB00090E00197F1F7CF911F910F9108950F9353
:100EC0001F93CF93DF938C01D62FC42F607F642BA9
:100ED0000E94460780E1D89FB00111246C2BC80105
:100EE000DF91CF911F910F910C94460741E00E9432
:100EF0005F0781E090E008950E943314FB010190A8
:100F00000020E9F73197AF01461B570BDC01ED914B
:100F1000FC910280F381E02D09948F929F92AF9211
:100F2000BF92EF92FF920F931F93CF93DF93CDB7B2
:100F3000DEB7A1970FB6F894DEBF0FBECDBF7C0120
:100F4000FA01CB0119A2223008F42AE08E010F5DCC
:100F50001F4F822E912CB12CA12CBF01A501940111
:100F60000E94A512F901CA016A300CF5605DD80132
:100F70006E938D01232B242B252B79F790E080E0B5
:100F8000109721F0BD01C7010E947E07A1960FB600
:100F9000F894DEBF0FBECDBFDF91CF911F910F91AF
:100FA000FF90EF90BF90AF909F908F900895695CF5
:100FB000DECFCF93DF93BC018BE993E00E947E07E5
:100FC000EC016AE571E08BE993E00E947E078C0FEB
:100FD0009D1FDF91CF9108952F923F924F925F9284
:100FE0006F927F928F929F92AF92BF92CF92DF9239
:100FF000EF92FF921F93CF93DF93EC016A017B0185
:10100000722EAB019601CB01B6010E9490126DE5E4
:1010100071E0811126C046015701E894B7F82FEF1F
:101020003FEF4FE75FE7C501B4010E9490128111C5
:101030000CC02FEF3FEF4FE75FE7C501B4010E94FF
:10104000C61061E671E0181664F02FEF3FEF4FE72E
:101050005FE4C701B6010E941E121816B4F465E6DB
:1010600071E0CE01DF91CF911F91FF90EF90DF9063
:10107000CF90BF90AF909F908F907F906F905F9038
:101080004F903F902F900C947E072FEF3FEF4FE74C
:101090005FECC701B6010E94C61087FDE0CF20E0DB
:1010A00030E0A901C701B6010E94C610312C212CE5
:1010B00087FF0DC0E881F9810190F081E02D6DE29C
:1010C000CE0109951C01F7FAF094F7F8F09410E0BE
:1010D00060E070E080E09FE3711641F020E030E0D6
:1010E00040E251E40E94CB101F5FF6CFA7019601AA
:1010F0000E945A102B013C010E943D114B015C01E2
:101100002AE0BC01A401CE010E948D077C01E20C03
:10111000F31C1123E1F1C501B4010E946C119B0184
:10112000AC01C301B2010E9459104B015C01E8817E
:10113000F9810190F081E02D6EE2CE010995E80E73
:10114000F91E115020F120E030E040E251E4C501E9
:10115000B4010E9423122B013C010E943D114B015E
:10116000B12CA12C2AE0B501A401CE010E948D076B
:10117000E80EF91EC501B4010E946C119B01AC017F
:10118000C301B2010E9459104B015C01DACFC701C3
:10119000DF91CF911F91FF90EF90DF90CF90BF90A4
:1011A000AF909F908F907F906F905F904F903F9007
:1011B0002F9008950C94AA130C94AA1385ED809394
:1011C000BC008091730390917403A0917503B0915A
:1011D00076030796A11DB11D23E0B695A7959795B7
:1011E00087952A95D1F72091BC0024FD03C0109269
:1011F00071030895409173035091740360917503D6
:1012000070917603452B462B472B69F30097A10578
:10121000B10541F02AE22A95F1F700C00197A10932
:10122000B109E1CF809172030C94C7021F920F9213
:101230000FB60F9211242F933F938F939F93AF93E9
:10124000BF9380911D0390911E03A0911F03B09145
:10125000200330911C0323E0230F2D3758F501960E
:10126000A11DB11D20931C0380931D0390931E03A9
:10127000A0931F03B0932003809121039091220338
:10128000A0912303B09124030196A11DB11D809369
:10129000210390932203A0932303B0932403BF91CF
:1012A000AF919F918F913F912F910F900FBE0F9013
:1012B0001F90189526E8230F0296A11DB11DD2CFCD
:1012C0001F920F920FB60F9211242F933F934F93BB
:1012D0005F936F937F938F939F93AF93BF93EF939E
:1012E000FF938BE993E00E94A701FF91EF91BF91DB
:1012F000AF919F918F917F916F915F914F913F91AE
:101300002F910F900FBE0F901F9018951F920F9264
:101310000FB60F9211242F938F939F93EF93FF9308
:10132000E091AB03F091AC038081E091B103F091C7
:10133000B20382FD1BC090818091B4038F5F8F73D5
:101340002091B503821741F0E091B403F0E0E55637
:10135000FC4F958F8093B403FF91EF919F918F91F4
:101360002F910F900FBE0F901F9018958081F4CF92
:101370001F920F920FB60F9211242F933F934F930A
:101380005F936F937F938F939F93AF93BF93EF93ED
:10139000FF938091B900887F803609F44AC0F0F548
:1013A000883209F4A7C018F5803109F49BC0B8F45D
:1013B000882309F4F9C0883009F494C0FF91EF91B3
:1013C000BF91AF919F918F917F916F915F914F915D
:1013D0003F912F910F900FBE0F901F90189588315D
:1013E00009F488C0803251F780936F0314C08034B1
:1013F00009F49DC040F48033B9F38833F9F6809343
:101400006F0385ECB0C0803509F485C0883509F4D8
:1014100096C0883499F60E94DE08D0CF883909F446
:101420008CC038F5883729F050F4883611F08037B1
:1014300029F683E08093710310921B0357C088380C
:1014400009F47BC0803919F0803809F0B7CF80915A
:101450001B03803208F071C0E0911B0381E08E0F06
:1014600080931B038091BB00F0E0E550FD4F80832B
:101470003DC0803B39F0E0F4803A09F479C0883A05
:1014800009F09CCF84E0809371031092FA021092CD
:10149000F902E0914703F091480309958091F90220
:1014A00081110FC081E08093F9021092D90209C026
:1014B000803C09F4A6CF883C09F4A3CF883B09F00F
:1014C0007DCFE091FA0281E08E0F8093FA02F0E086
:1014D000E752FD4F80818093BB009091FA0280918A
:1014E000F90229C080914C038093BB0085EC809366
:1014F000BC0064CF90916E0380916D03981758F5EE
:10150000E0916E0381E08E0F80936E03F0E0E35B69
:10151000FC4F8081E9CFE0916E0381E08E0F8093D4
:101520006E038091BB00F0E0E35BFC4F8083909101
:101530006E0380916D039817C8F285E8D8CFE091CB
:101540006E0381E08E0F80936E038091BB00F0E00C
:10155000E35BFC4F80838091700381115CCF81E05D
:1015600080934B0384EA8093BC001092710326CFD2
:1015700085EC8093BC001092710380911B03803234
:1015800030F4E0911B03F0E0E550FD4F10826091D4
:101590001B0370E0E0914503F09146038BEF92E06E
:1015A000099510921B030ACF10926F0334CFCF938B
:1015B000DF93EBE9F3E01382128248EE53E060E040
:1015C00070E0448355836683778382E191E0918361
:1015D000808385EC90E09587848784EC90E0978702
:1015E000868780EC90E0918B808B81EC90E0938BF0
:1015F000828B82EC90E0958B848B86EC90E0978BCD
:10160000868B118E128E138E148EA8E3B4E013967F
:101610001C921E92129714964D935D936D937C933A
:10162000179784E291E011969C938E93E4E6F4E0A0
:10163000108E118E128E138E148E158E168E178E9E
:1016400010A211A212A213A214A215A226E634E03F
:1016500086E1E90119928A95E9F7B7A3A6A387E77E
:1016600080A78EE491E091838083E8E5F4E0138223
:10167000128282E491E0918380838FE3848384E10A
:10168000818784E082871386E4E4F4E01382128287
:1016900086E391E091838083108A118A128A138AEB
:1016A0008EE3828780E6838780E1848782E0858776
:1016B000B787A687DF91CF910895CF93DF93CDB7FA
:1016C000DEB7A4970FB6F894DEBF0FBECDBF7894F7
:1016D00084B5826084BD84B5816084BD85B5826037
:1016E00085BD85B5816085BD80916E0081608093E8
:1016F0006E00109281008091810082608093810051
:101700008091810081608093810080918000816060
:10171000809380008091B10084608093B1008091BB
:10172000B00081608093B00080917A0084608093E3
:101730007A0080917A00826080937A0080917A00AA
:10174000816080937A0080917A00806880937A002B
:101750001092C1000E94B002E091AB03F091AC0383
:1017600012E01083E091A703F091A8031082E091AA
:10177000A903F091AA038FEC80831092B303E09148
:10178000AF03F091B00306E00083E091AD03F09168
:10179000AE03808180618083E091AD03F091AE0360
:1017A000808188608083E091AD03F091AE038081F9
:1017B00080688083E091AD03F091AE0380818F7DDE
:1017C000808389E691E00E94D90766E771E08BE9A2
:1017D00093E00E947E070E94B00280914F04803601
:1017E00009F0D3C384E08093540483E080935504CC
:1017F000109356041093570410924804809151049A
:10180000823018F098E09093480480934C04109232
:101810004D0462E370E080E090E00E94F50080916A
:10182000480480620E94700565E070E080E090E00E
:101830000E94F5008091480480620E94700565E076
:1018400070E080E090E00E94F500809148048062A2
:101850000E94700584E0809349048CE00E9470052A
:1018600081E00E9470058BE39FE10197F1F782E030
:1018700080934A0486E00E94700580914F04803670
:1018800009F0A5C360E080E00E9487056FEF88E063
:101890000E94870560E281E00E94870580915404E0
:1018A00090914F04903309F0B5C360EC0E94870516
:1018B00060EC809155040E94870560EC809156048D
:1018C0000E9487056FE771E084E494E00E947E0740
:1018D0000E94B00210925D0480916204823018F080
:1018E00098E090935D048093600462E370E080E090
:1018F00090E00E94F5006091630488E594E00E9406
:10190000E40568EE73E080E090E00E94F50060E39B
:1019100088E594E00E9446070BE416E4C8010197AD
:10192000F1F760E388E594E00E944607C80101975B
:10193000F1F760E388E594E00E94460783E592E0D2
:101940000197F1F760E288E594E00E944607609114
:101950005D04606240E088E594E00E945F0784E0F7
:1019600080935E0440E06CE088E594E00E945F07AD
:1019700040E061E088E594E00E945F070BE31FE12F
:10198000C8010197F1F782E080935F0440E066E0D0
:1019900088E594E00E945F0740E062E088E594E01B
:1019A0000E945F07C8010197F1F76AE871E088E5D6
:1019B00094E00E947E076FEF80ED0E94E906853576
:1019C00009F03DC322E04FEF5FEF60E070E08AEA8C
:1019D0000E946B062B0122E04FEF5FEF60E070E0AA
:1019E0008CEA0E946B0669877A878B879C8722E046
:1019F0004FEF5FEF60E070E08EEA0E946B066D874C
:101A00007E878F87988B22E04FEF5FEF60E070E07A
:101A100080EB0E946B06698B7A8B8B8B9C8B22E010
:101A20004FEF5FEF60E070E082EB0E946B066D8B22
:101A30007E8B8F8B988F22E04FEF5FEF60E070E03E
:101A400084EB0E946B06698F7A8F8B8F9C8F22E0CC
:101A50004FEF5FEF60E070E086EB0E946B066D8FEA
:101A60007E8F8F8F98A322E04FEF5FEF60E070E0F2
:101A700088EB0E946B0669A37AA38BA39CA322E048
:101A80004FEF5FEF60E070E08AEB0E946B064B0166
:101A900022E04FEF5FEF60E070E08CEB0E946B069E
:101AA0006B0122E04FEF5FEF60E070E08EEB0E9491
:101AB0006B06509267044092660429853A853093FC
:101AC0006904209368044D855E8550936B044093B0
:101AD0006A0429893A8930936D0420936C044D89F6
:101AE0005E8950936F0440936E04298D3A8D309334
:101AF0007104209370044D8D5E8D50937304409358
:101B0000720429A13AA13093750420937404909231
:101B1000770480927604D0927904C092780470930E
:101B20007B0460937A0488E991E00E94D907C12C74
:101B3000D12C7601C39410E000E0AA24A394A092D3
:101B40007703C09299031092780310929A0388E366
:101B500094E00E942D05811177C261EE71E08BE95E
:101B600093E00E947E073FE03C1530F060E072E0B9
:101B70008BE993E00E947E0720E1B701A6018BE983
:101B800093E00E948D0782E092E00E94D9070F5FE8
:101B90001F4F5FEFC51AD50AE50AF50A8FE7C81689
:101BA000D104E104F10459F688E392E0012B11F429
:101BB00082E292E00E94D90700E010E054E3252E73
:101BC0006EE2362E1B8290E8998320EC2A83BE01B8
:101BD0006F5F7F4F84E494E00E94300560E284EF01
:101BE0000E94E906811150C220927C0460917D041C
:101BF00030E4639FB001112464638FEF0E94C50637
:101C00000E9405078090860490908704A090880425
:101C1000B090890440EA841A4FE0940AA108B10800
:101C2000A5019401C501B4010E9495122B013C014C
:101C30006CE075946794579447946A95D1F7E09156
:101C40007D04A0916A04B0916B040E94F1126B01B3
:101C50007C017DE0F594E794D794C7947A95D1F709
:101C6000A0917204B0917304A30192010E94F11239
:101C70009C01552737FD5095452F2C0D3D1D4E1DC0
:101C80005F1D2E5F3F4F4F4F5F4FA2E05595479529
:101C900037952795AA95D1F730584F4F5F4FA091B0
:101CA0006C04B0916D040E94E6126B017C01BFE0F0
:101CB000F694E794D794C794BA95D1F7A091740499
:101CC000B0917504A30192010E94F1129B01AC0135
:101CD0008BE055954795379527958A95D1F72987B4
:101CE0003A874B875C87A0916804B0916904A5018D
:101CF00094010E94F112DC01CB012BE0B595A79570
:101D0000979587952A95D1F729853A854B855C85E6
:101D1000820F931FA41FB51F409166045091670462
:101D2000052E000C660B770B32E0440F551F661F23
:101D3000771F3A95D1F7840F951FA61FB71F0E2E58
:101D400004C0880F991FAA1FBB1F0A94D2F70296DE
:101D5000A11DB11D42E0B595A795979587954A9528
:101D6000D1F720917E0430917F04409180045091FE
:101D70008104281B390B4A0B5B0B60E573EC80E098
:101D800090E004C09595879577956795EA95D2F789
:101D90000E94951297FD7DC1660F771F881F991FBE
:101DA000A70196010E94A51269017A019927F7FC03
:101DB0009A958F2D7E2D6D2D9B01AC010E94951261
:101DC0009B01AC01AEEDBBE00E94E6124B015C0151
:101DD000A3E4B3EEA70196010E94F412BC01992777
:101DE00077FD9095892F4501BB2497FCB094AB2CCF
:101DF000680D791D8A1D9B1D6153714F8F4F9F4F39
:101E0000A4E09595879577956795AA95D1F76C0D80
:101E10007D1D8E1D9F1D0E946E11AB01BC0122E035
:101E200084E494E00E94EC0766E872E084E494E0C5
:101E30000E947E0788E0E6E0F1E0DE011196019065
:101E40000D928A95E1F780916004E1E0811101C073
:101E5000EFEFF0E0EE0FFF1F41E050E04C0F5D1F91
:101E6000E40FF51F6081606840E088E594E00E941F
:101E70005F0760E284EF0E94E906811115C130928C
:101E80007C046EE28FE30E94C5060E9405078091E4
:101E900070049091710420918204309183044091E8
:101EA000840450918504281B390B41095109A091E4
:101EB0006E04B0916F040E94E6126B017C018FE00A
:101EC000F594E794D794C7948A95D1F760917804F4
:101ED00070917904072E000C880B990B2BE0660F8C
:101EE000771F881F991F2A95D1F720917A04309186
:101EF0007B04032E000C440B550B2C0D3D1D4E1D79
:101F00005F1D0E94C712C20ED31EE41EF51EC092B2
:101F10008604D0928704E0928804F0928904A70195
:101F20009601285F3F4F4F4F5F4FCA01B90134E020
:101F300095958795779567953A95D1F70E946E119B
:101F40002DEC3CEC4CEC5DE30E942312AB01BC0198
:101F500022E088E594E00E94EC0765ED72E088E5F8
:101F600094E00E947E0764EF71E080E090E00E94C0
:101F7000F5000115110509F425CE0E94930188236F
:101F800009F420CE0E9400001DCE803359F4009346
:101F9000540487E08093550488E08093560480932E
:101FA00057042ACC8B3639F40093540485E080938F
:101FB000550484E0F2CF8D3209F01ECC81E080938D
:101FC00054041093550493E090935604E8CF803363
:101FD00059F460E081E00E9487056FEF82E00E9483
:101FE000870565E184E058CC8B3609F057CC60E07A
:101FF0008FE20E94870560E280E00E94870560E032
:1020000081E00E94870561E082E00E94870564E02C
:1020100083E042CC6FEF0E9487056FEF80915504FB
:102020000E9487056FEF809156040E94870580917A
:102030004F048B3609F046CC6FEF87E041CC84EA41
:1020400091E00E94D907FFCF843009F0A2CD66E06D
:1020500072E08BE993E00E947E074FE04C1530F070
:1020600060E072E08BE993E00E947E0720E1B70117
:10207000A6018BE993E00E948D076AE571E08BE988
:1020800093E00E947E0785CD8EE392E00E94D907FF
:10209000B7CDA70196010E94A51269017A01CC0C67
:1020A000DD1CEE1CFF1C82CE8AE892E00E94D9075C
:1020B000ECCE5058BB27AA270E9471100C94E41153
:1020C0000E94D61138F00E94DD1120F039F49F3FB4
:1020D00019F426F40C94D3110EF4E095E7FB0C945C
:1020E000CD11E92F0E94F51158F3BA176207730753
:1020F0008407950720F079F4A6F50C9417120EF4D6
:10210000E0950B2EBA2FA02D0B01B90190010C0107
:10211000CA01A0011124FF27591B99F0593F50F41F
:10212000503E68F11A16F040A22F232F342F442777
:10213000585FF3CF469537952795A795F04053956F
:10214000C9F77EF41F16BA0B620B730B840BBAF03F
:102150009150A1F0FF0FBB1F661F771F881FC2F7AA
:102160000EC0BA0F621F731F841F48F487957795BE
:102170006795B795F7959E3F08F0B0CF9395880F78
:1021800008F09927EE0F9795879508950E94A91159
:1021900008F481E008950E94DF100C94E4110E947D
:1021A000DD1158F00E94D61140F029F45F3F29F06C
:1021B0000C94CD1151110C9418120C94D3110E944F
:1021C000F51168F39923B1F3552391F3951B550B42
:1021D000BB27AA2762177307840738F09F5F5F4FFA
:1021E000220F331F441FAA1FA9F335D00E2E3AF039
:1021F000E0E832D091505040E695001CCAF72BD051
:10220000FE2F29D0660F771F881FBB1F26173707A1
:102210004807AB07B0E809F0BB0B802DBF01FF27D3
:1022200093585F4F3AF09E3F510578F00C94CD11D2
:102230000C9418125F3FE4F3983ED4F3869577959B
:102240006795B795F7959F5FC9F7880F911D96958C
:10225000879597F90895E1E0660F771F881FBB1FE8
:10226000621773078407BA0720F0621B730B840B95
:10227000BA0BEE1F88F7E09508950E94FD1188F0D3
:102280009F5798F0B92F9927B751B0F0E1F0660F3A
:10229000771F881F991F1AF0BA95C9F714C0B1307B
:1022A00091F00E941712B1E008950C941712672F55
:1022B000782F8827B85F39F0B93FCCF386957795AA
:1022C0006795B395D9F73EF4909580957095619593
:1022D0007F4F8F4F9F4F0895E89409C097FB3EF4BE
:1022E00090958095709561957F4F8F4F9F4F992363
:1022F000A9F0F92F96E9BB279395F69587957795E1
:102300006795B795F111F8CFFAF4BB0F11F460FFA0
:102310001BC06F5F7F4F8F4F9F4F16C0882311F0F8
:1023200096E911C0772321F09EE8872F762F05C00C
:10233000662371F096E8862F70E060E02AF09A95A7
:10234000660F771F881FDAF7880F9695879597F99C
:102350000895990F0008550FAA0BE0E8FEEF161636
:102360001706E807F907C0F012161306E407F50789
:1023700098F0621B730B840B950B39F40A2661F0FD
:10238000232B242B252B21F408950A2609F4A140A0
:10239000A6958FEF811D811D089597F99F6780E8AD
:1023A00070E060E008959FEF80EC089500240A94A7
:1023B0001616170618060906089500240A94121620
:1023C0001306140605060895092E0394000C11F453
:1023D000882352F0BB0F40F4BF2B11F460FF04C000
:1023E0006F5F7F4F8F4F9F4F089557FD9058440F59
:1023F000551F59F05F3F71F04795880F97FB991F64
:1024000061F09F3F79F08795089512161306140620
:10241000551FF2CF4695F1DF08C0161617061806AD
:10242000991FF1CF86957105610508940895E89488
:10243000BB2766277727CB0197F908950E94A9113A
:1024400008F48FEF08950E9436120C94E4110E9454
:10245000D61138F00E94DD1120F0952311F00C9474
:10246000CD110C94D31111240C9418120E94F51163
:1024700070F3959FC1F3950F50E0551F629FF001D7
:10248000729FBB27F00DB11D639FAA27F00DB11DF0
:10249000AA1F649F6627B00DA11D661F829F222779
:1024A000B00DA11D621F739FB00DA11D621F839F00
:1024B000A00D611D221F749F3327A00D611D231FD6
:1024C000849F600D211D822F762F6A2F11249F5724
:1024D00050409AF0F1F088234AF0EE0FFF1FBB1F27
:1024E000661F771F881F91505040A9F79E3F5105E6
:1024F00080F00C94CD110C9418125F3FE4F3983ED9
:10250000D4F3869577956795B795F795E7959F5F8F
:10251000C1F7FE2B880F911D9695879597F9089521
:102520000E94A911880B990B0895DB018F939F934B
:102530000E94E612BF91AF91A29F800D911DA39FB3
:10254000900DB29F900D11240895A1E21A2EAA1B9E
:10255000BB1BFD010DC0AA1FBB1FEE1FFF1FA21753
:10256000B307E407F50720F0A21BB30BE40BF50B50
:10257000661F771F881F991F1A9469F760957095D9
:10258000809590959B01AC01BD01CF010895052E6A
:1025900097FB1EF400940E94DE1257FD07D00E94A4
:1025A000A51207FC03D04EF40C94DE125095409512
:1025B000309521953F4F4F4F5F4F089590958095EF
:1025C000709561957F4F8F4F9F4F08950E94FF1226
:1025D000A59F900DB49F900DA49F800D911D112477
:1025E0000895B7FF0C94E6120E94E612821B930B2B
:1025F0000895EE0FFF1F0590F491E02D0994A29F1E
:10260000B001B39FC001A39F700D811D1124911DC6
:10261000B29F700D811D1124911D08950F931F937A
:10262000CF93DF938230910510F482E090E0E09147
:102630008F04F091900430E020E0B0E0A0E030970B
:1026400099F42115310509F44AC0281B390B2430AF
:102650003105D8F58A819B816115710589F1FB01EE
:1026600093838283FE0111C04081518102811381D5
:1026700048175907E0F04817590799F4109761F087
:1026800012960C93129713961C933296CF01DF91FA
:10269000CF911F910F91089500938F041093900490
:1026A000F4CF2115310551F04217530738F0A90135
:1026B000DB019A01BD01DF01F801C1CFEF01F9CFC4
:1026C0009093900480938F04CDCFFE01E20FF31F0F
:1026D000819391932250310939832883D7CF209158
:1026E0008D0430918E04232B41F42091020130910E
:1026F000030130938E0420938D04209100013091CA
:1027000001012115310541F42DB73EB74091040177
:1027100050910501241B350BE0918D04F0918E043E
:10272000E217F307A0F42E1B3F0B2817390778F0A8
:10273000AC014E5F5F4F2417350748F04E0F5F1F07
:1027400050938E0440938D04819391939FCFF0E03A
:10275000E0E09CCFCF93DF930097E9F0FC01329744
:1027600013821282A0918F04B0919004ED0130E0A9
:1027700020E01097A1F420813181820F931F2091D6
:102780008D0430918E042817390709F061C0F09349
:102790008E04E0938D04DF91CF910895EA01CE1766
:1027A000DF07E8F54A815B819E0141155105B1F7CC
:1027B000E901FB83EA8349915991C40FD51FEC17B6
:1027C000FD0761F4808191810296840F951FE901D4
:1027D00099838883828193819B838A83F0E0E0E000
:1027E00012968D919C9113970097B9F52D913C917C
:1027F0001197CD010296820F931F20918D04309185
:102800008E042817390739F6309751F51092900445
:1028100010928F04B0938E04A0938D04BCCFD38309
:10282000C28340815181840F951FC817D90761F475
:102830004E5F5F4F88819981480F591F51834083B4
:102840008A819B81938382832115310509F0B0CF62
:10285000F0939004E0938F049ECFFD01DC01C0CF84
:1028600013821282D7CF81E090E0F8940C94381450
:04287000F894FFCF0A
:102874000000910480000000400014005400000097
:102884000000C90129015601160287016501790179
:1028940000000000FE04D1041106A704CA04B70412
:1028A400A80400000000F905290111061006000023
:1028B40000007607290111061006000000006A02D4
:1028C400DC08270194061406B3050D0A006E616E38
:1028D40000696E66006F7666000A493243205363CE
:1028E400616E6E6572004445425547313233005083
:1028F400726573737572653A200054656D70657204
:1029040061747572653A20005363616E6E696E6717
:102914002E2E2E00626567696E2829206661696C17
:1029240065642E20436865636B20796F757220425D
:102934004D5031383020496E74657266616365208C
:10294400616E642049324320416464726573732E5E
:10295400004932432064657669636520666F756E4D
:10296400642061742061646472657373203078003C
:10297400300020202100556E6B6E6F776E206572DB
:10298400726F7220617420616464726573732030A5
:1029940078004E6F2049324320646576696365731D
:1029A40020666F756E640A00646F6E650A00436F7B
:1029B400756C64206E6F742073746172742070720D
:1029C400657373757265206D6561737572656D6588
:1029D4006E742C2069732061206D65617375726556
:1029E4006D656E7420616C72656164792072756EB8
:1029F4006E696E673F0020506100436F756C642000
:102A04006E6F742073746172742074656D70657276
:102A14006174757265206D6561737572656D656E3F
:102A2400742C2069732061206D6561737572656D06
:102A3400656E7420616C72656164792072756E6E66
:082A4400696E673F00204300AA
:00000001FF
