:020000040000FA
:100000000C9458000C9480000C9480000C94800098
:100010000C9480000C9480000C9480000C94800060
:100020000C9480000C9480000C9480000C94800050
:100030000C9480000C9480000C9480000C94800040
:100040000C9413090C9480000C9483090C945D09A2
:100050000C9480000C9480000C9480000C94800020
:100060000C94B5090C9480000000000025002800C5
:100070002B00040404040404040402020202020229
:10008000030303030303010204081020408001025C
:1000900004081020010204081020000000080002DB
:1000A0000100000304070000000000000000D40A63
:1000B00011241FBECFEFD8E0DEBFCDBF12E0A0E01D
:1000C000B1E0EAE8F8E202C005900D92A03DB10768
:1000D000D9F724E0A0EDB2E001C01D92A938B20723
:1000E000E1F710E0C8E5D0E004C02197FE010E94CE
:1000F0000413C735D107C9F70E945A0B0C94431457
:100100000C9400000895089590E0FC01E656FF4F1E
:100110002491FC01EA57FF4F3491FC01EE58FF4F48
:10012000E491EE23C9F0222339F0233001F1A8F441
:10013000213019F1223029F1F0E0EE0FFF1FE859CC
:10014000FF4FA591B4918FB7F894EC91611126C03F
:1001500030953E233C938FBF08952730A9F0283077
:10016000C9F0243049F7809180008F7D03C08091D1
:1001700080008F7780938000DFCF84B58F7784BD38
:10018000DBCF84B58F7DFBCF8091B0008F778093DC
:10019000B000D2CF8091B0008F7DF9CF3E2BDACF67
:1001A0003FB7F8948091190390911A03A0911B0313
:1001B000B0911C0326B5A89B05C02F3F19F00196EE
:1001C000A11DB11D3FBFBA2FA92F982F8827BC01B1
:1001D000CD01620F711D811D911D42E0660F771FD9
:1001E000881F991F4A95D1F708958F929F92AF92D9
:1001F000BF92CF92DF92EF92FF924B015C010E947F
:10020000D0006B017C010E94D0006C197D098E0921
:100210009F09683E734081059105A8F321E0821A89
:100220009108A108B10888EEC80E83E0D81EE11C31
:10023000F11C81149104A104B10429F7FF90EF90FF
:10024000DF90CF90BF90AF909F908F90089581E006
:100250000895AF92BF92CF92DF92EF92FF920F93E9
:100260001F93CF93DF936C017B018B01040F151F4C
:10027000EB015E01AE18BF08C017D10759F06991B4
:10028000D601ED91FC910190F081E02DC601099518
:10029000892B79F7C501DF91CF911F910F91FF90C5
:1002A000EF90DF90CF90BF90AF900895FC01538DF9
:1002B000448D252F30E0842F90E0821B930B541740
:1002C00010F0CF96089501970895FC01918D828DCD
:1002D000981761F0A28DAE0FBF2FB11D5D968C9166
:1002E000928D9F5F9F73928F90E008958FEF9FEFA5
:1002F0000895FC01918D828D981731F0828DE80F61
:10030000F11D858D90E008958FEF9FEF0895FC011A
:10031000918D228D892F90E0805C9F4F821B9109E7
:100320008F739927089583E993E00E94870121E064
:10033000892B09F420E0822F089580E090E0892B3A
:1003400029F00E94930181110C9400000895FC0192
:10035000A48DA80FB92FB11DA35ABF4F2C91848D26
:1003600090E001968F739927848FA689B7892C9383
:10037000A089B1898C91837080648C93938D848DD6
:10038000981306C00288F389E02D80818F7D8083D9
:100390000895EF92FF920F931F93CF93DF93EC0199
:1003A00081E0888F9B8D8C8D98131AC0E889F9891C
:1003B000808185FF15C09FB7F894EE89FF8960831F
:1003C000E889F98980818370806480839FBF81E0A0
:1003D00090E0DF91CF911F910F91FF90EF900895E2
:1003E000F62E0B8D10E00F5F1F4F0F731127E02EBD
:1003F0008C8D8E110CC00FB607FCFACFE889F989F5
:10040000808185FFF5CFCE010E94A701F1CFEB8D52
:10041000EC0FFD2FF11DE35AFF4FF0829FB7F894C8
:100420000B8FEA89FB8980818062CFCFCF93DF93E6
:10043000EC01888D8823B9F0AA89BB89E889F989FC
:100440008C9185FD03C0808186FD0DC00FB607FC31
:10045000F7CF8C9185FFF2CF808185FFEDCFCE0164
:100460000E94A701E9CFDF91CF9108950895BF922F
:10047000CF92DF92EF92FF920F931F93CF93DF9370
:100480004530D8F4B42E062FEC0110E060E070E0A7
:10049000CB01B116A9F0CC24D62EE72EF82EE88198
:1004A000F9810680F781E02D602FCE010995960134
:1004B000282BC701B9011F5FECCF60E070E0CB01D2
:1004C000DF91CF911F910F91FF90EF90DF90CF9030
:1004D000BF90089508952091F102260F3327331F0E
:1004E00021323105ECF420916903FC0190E080E0B9
:1004F000243069F082E00895A091F1022191AC01CD
:100500004F525D4FA40FB52FB11D2C930196861746
:1005100098F38091F102680F6093F10280E00895F2
:1005200081E008951092690381E08093680310923E
:10053000430361E082E10E94840061E083E10E9464
:100540008400E9EBF0E080818E7F808380818D7F65
:10055000808388E48093B80085E48093BC0008958C
:100560001092420310924103109270031092920372
:100570000E94920282E890E09093400380933F03B0
:1005800083E890E090933E0380933D030895CF93DA
:10059000DF9391E09093D0028823B9F0C091B80026
:1005A000D091BA008091BC008A7B8093BC0060E04F
:1005B00082E10E94840060E083E10E9484000E9446
:1005C0009202D093BA00C093B800DF91CF91089502
:1005D0008F929F92AF92BF92CF92DF92EF92FF9253
:1005E0000F931F93CF93DF93D0919203D13208F0F2
:1005F000D7C0182FC09191030E94D0006B017C01DD
:100600008091690381116BC082E08093690310932C
:1006100068038FEF8093670310926603D09365039E
:10062000A1E7B3E0E5E4F3E080E0D81391C01092D5
:10063000440380914403CC0FC82BC09344038091A2
:100640004303813009F088C0109243030E94D00018
:100650006B017C01809144038093BB0080916B030C
:1006600090916C03A0916D03B0916E03892B8A2B3E
:100670008B2BA1F00E94D00000916B0310916C03B2
:1006800020916D0330916E036C197D098E099F09CD
:10069000061717072807390708F442C08091BC00E5
:1006A00083FDD8CF85EC8093BC000E94D0006B0105
:1006B0007C0180916903823009F450C08091670306
:1006C0008F3F09F46FC080916703803209F46CC0DA
:1006D00080916703803309F469C084E026C080916B
:1006E0006B0390916C03A0916D03B0916E03892B05
:1006F0008A2B8B2B09F484CF0E94D00080906B034F
:1007000090906C03A0906D03B0906E036C197D09FE
:100710008E099F0986169706A806B90608F070CFBD
:1007200080916A030E94C70285E0109270031092C4
:10073000920310926F03DF91CF911F910F91FF9061
:10074000EF90DF90CF90BF90AF909F908F900895E3
:100750009D9191938F5F69CF85EEA5CF80916B03BB
:1007600090916C03A0916D03B0916E03892B8A2B3D
:100770008B2B09F49ECF0E94D00000916B03109147
:100780006C0320916D0330916E036C197D098E0905
:100790009F09061717072807390708F08ACFC0CF27
:1007A00081E0C3CF80E0C1CF82E0BFCF83E0BDCF87
:1007B000CF92DF92EF92FF920F931F93CF93DF932D
:1007C000D82FC62F613208F098C00E94D0006B016C
:1007D0007C018091690381116BC081E08093690382
:1007E000809368039FEF90936703109266039C0FBA
:1007F000909365038093440380914403DD0FD82BCD
:10080000D093440380914303813009F078C0109263
:1008100043030E94D0006B017C01809144038093CC
:10082000BB0080916B0390916C03A0916D03B0911C
:100830006E03892B8A2B8B2BA1F00E94D000009194
:100840006B0310916C0320916D0330916E036C1952
:100850007D098E099F09061717072807390708F42D
:1008600048C08091BC0083FDD8CF85EC8093BC004C
:100870000E94D0006B017C0180916903813009F4F2
:1008800040C0809166038C1710F4C0916603E5E4C4
:10089000F3E0ADE1B3E080E08C1355C08C2FDF9125
:1008A000CF911F910F91FF90EF90DF90CF9008951F
:1008B00080916B0390916C03A0916D03B0916E03D6
:1008C000892B8A2B8B2B09F484CF0E94D0000091B6
:1008D0006B0310916C0320916D0330916E036C19C2
:1008E0007D098E099F09061717072807390708F0A1
:1008F00070CF80916A030E94C702C0E0CFCF85EE1F
:10090000B5CF80916B0390916C03A0916D03B09172
:100910006E03892B8A2B8B2B09F4AECF0E94D0005B
:1009200000916B0310916C0320916D0330916E0365
:100930006C197D098E099F090617170728073907C3
:1009400008F09ACFD6CF91919D938F5FA5CF089550
:10095000E091420380914103E81730F4F0E0E35E58
:10096000FC4F808190E008958FEF9FEF0895909164
:100970004203809141032FEF3FEF981748F4E92F8E
:10098000F0E0E35EFC4F208130E09F5F90934203F4
:10099000C90108958091410390914203891B990BED
:1009A0000895CF92DF92EF92FF920F931F93CF9310
:1009B000DF937C01CB018A0120916F03222389F010
:1009C000EB016B01C40ED51ECC15DD0569F06991F4
:1009D000D701ED91FC910190F081E02DC7010995BF
:1009E000F3CF642F0E946B02C801DF91CF911F915A
:1009F0000F91FF90EF90DF90CF900895CF93DF930A
:100A00001F92CDB7DEB7698320916F032223F9F0DF
:100A100020919203203258F021E030E0FC01338332
:100A2000228390E080E00F90DF91CF910895809134
:100A30007003E82FF0E0EF58FC4F998190838F5FAF
:100A4000809370038093920381E090E0ECCF61E0AB
:100A5000CE0101960E946B02F7CF81E00C94E80270
:100A60001F93CF93DF93162FCCE3D4E0AE85BF85E1
:100A70009B8521E020936F03909391031092700364
:100A800010929203ED91FC9111970190F081E02D6D
:100A9000682FCD0109958E859F85DC01ED91FC9134
:100AA0000190F081E02D612F09958E859F85DF9162
:100AB000CF911F910C942D05EF92FF920F931F93EE
:100AC000CF93DF938C017B01DC011A968C911A97EE
:100AD00091E090936F0380939103109270031092B2
:100AE00092031E968D919C91DC01ED91FC910190F9
:100AF000F081E02DDB016C910995CBE8D1E0CE01CE
:100B00000197F1F7F80186859785DC01ED91FC915D
:100B10000190F081E02DD70111966C9109952197F4
:100B2000F1F7F80186859785DF91CF911F910F919D
:100B3000FF90EF900C942D05CF93DF9300D01F9280
:100B4000CDB7DEB71B8290E899838A83BE016F5FC1
:100B50007F4F8CE394E00E945C050F900F900F9004
:100B6000DF91CF9108951F93CF93DF93FC01A6A14E
:100B7000B7A1109729F1142FEC0180A591E0909373
:100B80006F03809391031092700310929203ED9182
:100B9000FC9111970190F081E02DCD0109958EA176
:100BA0009FA1DC01ED91FC910190F081E02D612F7E
:100BB00009958EA19FA1DF91CF911F910C942D05D6
:100BC000DF91CF911F910895FC01248131E0309392
:100BD0006F03209391031092700310929203838508
:100BE000682B80E394E00E94FE0480E394E00C9480
:100BF0002D05CF93DF9300D01F92CDB7DEB71B82B8
:100C000020E429836A83BE016F5F7F4F0E945C05E9
:100C100081E090E00F900F900F90DF91CF910895B9
:100C2000089590E080E00895CF92DF92EF92FF92D6
:100C30000F931F93CF93DF93FC01A6A1B7A1109749
:100C4000F1F14530E0F5142FEC0180A591E090938F
:100C50006F03809391031092700310929203ED91B1
:100C6000FC9111970190F081E02DCD01099580E074
:100C70000E94E802612F88A50E94D80310924203C7
:100C80008093410300E060E070E0CB011017D1F0E9
:100C9000CC24D62EE72EF82E8EA19FA1DC01ED915B
:100CA000FC910284F385E02D0995BC01990F880B16
:100CB000990B6C297D298E299F290F5FE7CF60E072
:100CC00070E0CB01DF91CF911F910F91FF90EF90DA
:100CD000DF90CF900895CF92DF92EF92FF926A015A
:100CE0007B01422F682F8CE594E00E9414066C2152
:100CF0007D218E219F21CC2059F020E04C2D50E009
:100D0000C0FC05C02F5F6A01D594C794F7CFC22EEF
:100D100004C09695879577956795CA94D2F7FF900A
:100D2000EF90DF90CF900895CF93DF93EC018EA1E9
:100D30009FA1009741F128A531E030936F032093E4
:100D400091031092700310929203DC01ED91FC91DB
:100D50000190F081E02D099580E00E94E80261E0B9
:100D600088A50E94D80310924203809341038EA16C
:100D70009FA1DC01ED91FC910284F385E02D0995A2
:100D8000DF91CF91089580E0FBCFCF93DF93C62F03
:100D9000682F8CE594E00E9494068C2390E020E07C
:100DA0004C2F50E0C0FD05C02F5FEA01D595C795D7
:100DB000F7CF02C0959587952A95E2F7DF91CF91FD
:100DC000089560E284EF0E94C506811136C08091CB
:100DD00074048E3209F1843381F523E04FEF5FEF25
:100DE0006FEF70E086EF0E946B064091750428E07B
:100DF00030E0241B310904C0959587957795679558
:100E00002A95D2F7609376047093770480937804E0
:100E10009093790481E0089522E04FEF5FEF60E066
:100E200070E086EF0E946B0660937A0470937B04F7
:100E300080937C0490937D04EDCF80E00895CF9360
:100E4000DF93D82FC62F64EF8CE594E00E949406C0
:100E50005D2F2C2F90E06D2F70E0D0FD05C09F5FBF
:100E600075956795D62FF7CF01C0220F9A95EAF7AF
:100E7000482F42274523482764EF8CE594E0DF9113
:100E8000CF910C94B3050F931F93CF938C01C62F72
:100E90000E94E4056C2F6460C8010E94E4056C2F79
:100EA0006B7FC8010E94E40583EC90E00197F1F7A5
:100EB000CF911F910F9108950F931F93CF93DF93BD
:100EC0008C01D62FC42F607F642B0E94430780E1E2
:100ED000D89FB00111246C2BC801DF91CF911F91D5
:100EE0000F910C94430741E00E945C0781E090E081
:100EF00008950E943E14FB0101900020E9F731970C
:100F0000AF01461B570BDC01ED91FC910280F38190
:100F1000E02D09948F929F92AF92BF92EF92FF9231
:100F20000F931F93CF93DF93CDB7DEB7A1970FB683
:100F3000F894DEBF0FBECDBF7C01FA01CB0119A230
:100F4000223008F42AE08E010F5D1F4F822E912C73
:100F5000B12CA12CBF01A50194010E94B012F9018E
:100F6000CA016A300CF5605DD8016E938D01232BA8
:100F7000242B252B79F790E080E0109721F0BD011C
:100F8000C7010E947B07A1960FB6F894DEBF0FBE83
:100F9000CDBFDF91CF911F910F91FF90EF90BF9048
:100FA000AF909F908F900895695CDECFCF93DF93D1
:100FB000BC0183E993E00E947B07EC016AE571E0E4
:100FC00083E993E00E947B078C0F9D1FDF91CF91F7
:100FD00008952F923F924F925F926F927F928F92DD
:100FE0009F92AF92BF92CF92DF92EF92FF921F93A8
:100FF000CF93DF93EC016A017B01722EAB01960166
:10100000CB01B6010E949B126DE571E0811126C0F3
:1010100046015701E894B7F82FEF3FEF4FE75FE73E
:10102000C501B4010E949B1281110CC02FEF3FEF4C
:101030004FE75FE7C501B4010E94D11061E671E09E
:10104000181664F02FEF3FEF4FE75FE4C701B601DA
:101050000E9429121816B4F465E671E0CE01DF9102
:10106000CF911F91FF90EF90DF90CF90BF90AF9006
:101070009F908F907F906F905F904F903F902F90B8
:101080000C947B072FEF3FEF4FE75FECC701B601F2
:101090000E94D11087FDE0CF20E030E0A901C70118
:1010A000B6010E94D110312C212C87FF0DC0E881A0
:1010B000F9810190F081E02D6DE2CE0109951C01CE
:1010C000F7FAF094F7F8F09410E060E070E080E058
:1010D0009FE3711641F020E030E040E251E40E94CD
:1010E000D6101F5FF6CFA70196010E9465102B0155
:1010F0003C010E9448114B015C012AE0BC01A401A3
:10110000CE010E948A077C01E20CF31C1123E1F15D
:10111000C501B4010E9477119B01AC01C301B2016A
:101120000E9464104B015C01E881F9810190F0811B
:10113000E02D6EE2CE010995E80EF91E115020F166
:1011400020E030E040E251E4C501B4010E942E12DB
:101150002B013C010E9448114B01B12CA12C2AE02B
:10116000B501A401CE010E948A07E80EF91EC5014F
:10117000B4010E9477119B01AC01C301B2010E942E
:1011800064104B015C01DACFC701DF91CF911F9151
:10119000FF90EF90DF90CF90BF90AF909F908F9097
:1011A0007F906F905F904F903F902F9008950C9498
:1011B000B5130C94B51385ED8093BC0080916B033F
:1011C00090916C03A0916D03B0916E030796A11DE1
:1011D000B11D23E0B695A795979587952A95D1F7E8
:1011E0002091BC0024FD03C0109269030895409132
:1011F0006B0350916C0360916D0370916E03452BEE
:10120000462B472B69F30097A105B10541F02AE26F
:101210002A95F1F700C00197A109B109E1CF8091AA
:101220006A030C94C7021F920F920FB60F921124FB
:101230002F933F938F939F93AF93BF938091150309
:1012400090911603A0911703B091180330911403E5
:1012500023E0230F2D3758F50196A11DB11D2093D2
:1012600014038093150390931603A0931703B09370
:1012700018038091190390911A03A0911B03B09158
:101280001C030196A11DB11D8093190390931A03AD
:10129000A0931B03B0931C03BF91AF919F918F91BB
:1012A0003F912F910F900FBE0F901F90189526E839
:1012B000230F0296A11DB11DD2CF1F920F920FB620
:1012C0000F9211242F933F934F935F936F937F93CC
:1012D0008F939F93AF93BF93EF93FF9383E993E033
:1012E0000E94A701FF91EF91BF91AF919F918F91C4
:1012F0007F916F915F914F913F912F910F900FBE12
:101300000F901F9018951F920F920FB60F921124F5
:101310002F938F939F93EF93FF93E091A303F0910B
:10132000A4038081E091A903F091AA0382FD1BC070
:1013300090818091AC038F5F8F732091AD038217F2
:1013400041F0E091AC03F0E0ED56FC4F958F8093B7
:10135000AC03FF91EF919F918F912F910F900FBE52
:101360000F901F9018958081F4CF1F920F920FB6A7
:101370000F9211242F933F934F935F936F937F931B
:101380008F939F93AF93BF93EF93FF938091B90097
:10139000887F803609F44AC0F0F5883209F4A7C086
:1013A00018F5803109F49BC0B8F4882309F4F9C01A
:1013B000883009F494C0FF91EF91BF91AF919F9154
:1013C0008F917F916F915F914F913F912F910F90EE
:1013D0000FBE0F901F901895883109F488C0803295
:1013E00051F78093670314C0803409F49DC040F422
:1013F0008033B9F38833F9F68093670385ECB0C086
:10140000803509F485C0883509F496C0883499F68A
:101410000E94DB08D0CF883909F48CC038F58837B2
:1014200029F050F4883611F0803729F683E0809354
:1014300069031092130357C0883809F47BC08039C0
:1014400019F0803809F0B7CF80911303803208F08B
:1014500071C0E091130381E08E0F8093130380919C
:10146000BB00F0E0ED50FD4F80833DC0803B39F084
:10147000E0F4803A09F479C0883A09F09CCF84E01E
:10148000809369031092F2021092F102E0913F03FF
:10149000F091400309958091F10281110FC081E024
:1014A0008093F1021092D10209C0803C09F4A6CFCA
:1014B000883C09F4A3CF883B09F07DCFE091F2028C
:1014C00081E08E0F8093F202F0E0EF52FD4F8081B9
:1014D0008093BB009091F2028091F10229C080912B
:1014E00044038093BB0085EC8093BC0064CF909153
:1014F000660380916503981758F5E091660381E0D3
:101500008E0F80936603F0E0EB5BFC4F8081E9CFA8
:10151000E091660381E08E0F809366038091BB00AB
:10152000F0E0EB5BFC4F8083909166038091650354
:101530009817C8F285E8D8CFE091660381E08E0F56
:10154000809366038091BB00F0E0EB5BFC4F8083EF
:101550008091680381115CCF81E08093430384EA2A
:101560008093BC001092690326CF85EC8093BC0069
:101570001092690380911303803230F4E0911303D9
:10158000F0E0ED50FD4F10826091130370E0E091A8
:101590003D03F0913E0383EF92E00995109213030F
:1015A0000ACF1092670334CFCF93DF93E3E9F3E0E0
:1015B0001382128248EE53E060E070E0448355836A
:1015C0006683778382E191E09183808385EC90E06C
:1015D0009587848784EC90E09787868780EC90E0FD
:1015E000918B808B81EC90E0938B828B82EC90E0EE
:1015F000958B848B86EC90E0978B868B118E128E68
:10160000138E148EA0E3B4E013961C921E921297D0
:1016100014964D935D936D937C93179784E291E0BC
:1016200011969C938E93ECE5F4E0108E118E128E41
:10163000138E148E158E168E178E10A211A212A262
:1016400013A214A215A22EE534E086E1E901199255
:101650008A95E9F7B7A3A6A387E780A78EE491E070
:1016600091838083E0E5F4E01382128282E491E0CA
:10167000918380838FE3848384E1818784E0828700
:101680001386ECE3F4E01382128286E391E0918307
:101690008083108A118A128A138A8EE3828780E6F9
:1016A000838780E1848782E08587B787A687DF917B
:1016B000CF910895CF93DF93CDB7DEB7A4970FB640
:1016C000F894DEBF0FBECDBF789484B5826084BD30
:1016D00084B5816084BD85B5826085BD85B5816036
:1016E00085BD80916E00816080936E0010928100B4
:1016F000809181008260809381008091810081606F
:10170000809381008091800081608093800080912F
:10171000B10084608093B1008091B00081608093BB
:10172000B00080917A00846080937A0080917A0082
:10173000826080937A0080917A00816080937A0041
:1017400080917A00806880937A001092C1000E9494
:10175000B002E091A303F091A40312E01083E091A2
:101760009F03F091A0031082E091A103F091A203E6
:101770008FEC80831092AB03E091A703F091A80354
:1017800006E00083E091A503F091A60380818061CB
:101790008083E091A503F091A60380818860808317
:1017A000E091A503F091A603808180688083E09199
:1017B000A503F091A60380818F7D808389E691E067
:1017C0000E94D6070E94B00280914704803609F03B
:1017D000DEC384E080934C0483E080934D04109337
:1017E0004E0410934F0410924004809149048230BB
:1017F00018F098E0909340048093440410924504BC
:1018000062E370E080E090E00E94F5008091400487
:1018100080620E949C0565E070E080E090E00E949C
:10182000F5008091400480620E949C0565E070E0B4
:1018300080E090E00E94F5008091400480620E9468
:101840009C0584E0809341048CE00E949C0581E02B
:101850000E949C058BE39FE10197F1F782E0809362
:10186000420486E00E949C0580914704803609F07E
:10187000B0C360E080E00E9430056FEF88E00E9416
:10188000300560E281E00E94300580914C04909127
:101890004704903309F0C0C360EC0E94300560EC4F
:1018A00080914D040E94300560EC80914E040E94AE
:1018B000300566E771E08CE394E00E947B070E94AC
:1018C000B0021092550480915A04823018F098E0CA
:1018D000909355048093580462E370E080E090E0B8
:1018E0000E94F50060915B0480E594E00E94E405AD
:1018F00068EE73E080E090E00E94F50060E380E530
:1019000094E00E9443070BE416E4C8010197F1F745
:1019100060E380E594E00E944307C8010197F1F776
:1019200060E380E594E00E94430783E592E001973D
:10193000F1F760E280E594E00E944307609155046E
:10194000606240E080E594E00E945C0784E0809360
:10195000560440E06CE080E594E00E945C0740E0C3
:1019600061E080E594E00E945C070BE31FE1C801A1
:101970000197F1F782E08093570440E066E080E54C
:1019800094E00E945C0740E062E080E594E00E9401
:101990005C07C8010197F1F761E871E080E594E028
:1019A0000E947B076FEF80ED0E94C506853509F028
:1019B00048C322E04FEF5FEF60E070E08AEA0E94E8
:1019C0006B062B0122E04FEF5FEF60E070E08CEAE6
:1019D0000E946B0669877A878B879C8722E04FEF8E
:1019E0005FEF60E070E08EEA0E946B066D877E8795
:1019F0008F87988B22E04FEF5FEF60E070E080EB25
:101A00000E946B06698B7A8B8B8B9C8B22E04FEF4D
:101A10005FEF60E070E082EB0E946B066D8B7E8B67
:101A20008F8B988F22E04FEF5FEF60E070E084EBE8
:101A30000E946B06698F7A8F8B8F9C8F22E04FEF0D
:101A40005FEF60E070E086EB0E946B066D8F7E8F2B
:101A50008F8F98A322E04FEF5FEF60E070E088EB9C
:101A60000E946B0669A37AA38BA39CA322E04FEF8D
:101A70005FEF60E070E08AEB0E946B064B0122E0B2
:101A80004FEF5FEF60E070E08CEB0E946B066B0144
:101A900022E04FEF5FEF60E070E08EEB0E946B069C
:101AA00050925F0440925E0429853A853093610428
:101AB000209360044D855E855093630440936204D7
:101AC00029893A8930936504209364044D895E899D
:101AD0005093670440936604298D3A8D30936904CE
:101AE000209368044D8D5E8D50936B0440936A047F
:101AF00029A13AA130936D0420936C0490926F0455
:101B000080926E04D0927104C0927004709373043A
:101B10006093720400E010E06EE2262E33243394CA
:101B20008CEC91E00E94D607812C912C5401839477
:101B3000F12CE12C30926F0380929103109270038C
:101B40001092920380E394E00E942D0581117EC2E1
:101B500068ED71E083E993E00E947B073FE0381570
:101B600030F067EF71E083E993E00E947B0720E1AA
:101B7000B501A40183E993E00E948A0789EF91E00F
:101B80000E94D6074FEFE41AF40A8FEF881A980ADA
:101B9000A80AB80A9FE789169104A104B10451F676
:101BA00089E192E0EF2811F08FE292E00E94D607DF
:101BB00060E284EF0E94C506811168C224E320938D
:101BC00074046091750430E4639FB0011124646370
:101BD0008FEF0E941F0764E670E080E090E00E94B3
:101BE000F5000E94E1068823B1F380907E04909076
:101BF0007F04A0908004B090810440EA841A4FE0F2
:101C0000940AA108B108A5019401C501B4010E947C
:101C1000A0122B013C018CE0759467945794479473
:101C20008A95D1F7E0917504A0916204B0916304A4
:101C30000E94FC126B017C019DE0F594E794D7941F
:101C4000C7949A95D1F7A0916A04B0916B04A3014F
:101C500092010E94FC129C01552737FD5095452F9B
:101C60002C0D3D1D4E1D5F1D2E5F3F4F4F4F5F4F93
:101C700062E055954795379527956A95D1F7305885
:101C80004F4F5F4FA0916404B09165040E94F11220
:101C90006B017C017FE0F694E794D794C7947A9522
:101CA000D1F7A0916C04B0916D04A30192010E9440
:101CB000FC129B01AC01FBE05595479537952795A4
:101CC000FA95D1F729873A874B875C87A091600402
:101CD000B0916104A50194010E94FC12DC01CB01CA
:101CE0002BE0B595A795979587952A95D1F72985E6
:101CF0003A854B855C85820F931FA41FB51F4091C9
:101D00005E0450915F04052E000C660B770B32E0E9
:101D1000440F551F661F771F3A95D1F7840F951F03
:101D2000A61FB71F0E2E04C0880F991FAA1FBB1F26
:101D30000A94D2F70296A11DB11D42E0B595A79570
:101D4000979587954A95D1F720917604309177043D
:101D50004091780450917904281B390B4A0B5B0B96
:101D600060E573EC80E090E004C0959587957795E9
:101D70006795EA95D2F70E94A01297FD97C1660F6A
:101D8000771F881F991FA70196010E94B012490171
:101D90005A019927B7FC9A958B2D7A2D692D9B01B5
:101DA000AC010E94A0129B01AC01AEEDBBE00E9411
:101DB000F1126B017C01A3E4B3EEA50194010E9432
:101DC000FF12BC01992777FD9095892F6701FF24A9
:101DD000D7FCF094EF2CC60ED71EE81EF91E3FEC80
:101DE000C30E3EE0D31EE11CF11CF4E0F594E79431
:101DF000D794C794FA95D1F71B8240E8498350ECF9
:101E00005A83BE016F5F7F4F8CE394E00E945C05B4
:101E1000C501B4016C0D7D1D8E1D9F1D0E947911A1
:101E2000AB01BC0122E08CE394E00E94E9076DE77E
:101E300072E08CE394E00E947B0760E284EF0E94F2
:101E4000C50681113EC1209274046EE28FE30E94A8
:101E50001F0764E670E080E090E00E94F5000E94B9
:101E6000E1068823B1F38091680490916904209180
:101E70007A0430917B0440917C0450917D04281BAE
:101E8000390B41095109A0916604B09167040E9481
:101E9000F1126B017C019FE0F594E794D794C7940D
:101EA0009A95D1F76091700470917104072E000C1F
:101EB000880B990B2BE0660F771F881F991F2A95B7
:101EC000D1F72091720430917304032E000C440B5F
:101ED000550B2C0D3D1D4E1D5F1D0E94D212C20ED2
:101EE000D31EE41EF51EC0927E04D0927F04E092C1
:101EF0008004F0928104A7019601285F3F4F4F4F65
:101F00005F4FCA01B90134E095958795779567953C
:101F10003A95D1F70E9479112DEC3CEC4CEC5DE345
:101F20000E942E126B017C0188E0E6E0F1E0DE0108
:101F3000119601900D928A95E1F780915804E1E0A5
:101F4000811101C0EFEFF0E0EE0FFF1F81E090E0A4
:101F50008C0F9D1FE80FF91F6081606840E080E5ED
:101F600094E00E945C0722E0B701A60180E594E0BE
:101F70000E94E9076CEC72E080E594E00E947B0728
:101F800064EF71E080E090E00E94F50083C0803350
:101F900059F400934C0487E080934D0488E08093CB
:101FA0004E0480934F041FCC8B3639F400934C04BD
:101FB00085E080934D0484E0F2CF8D3209F013CC9C
:101FC00081E080934C0410934D0493E090934E0471
:101FD000E8CF803359F460E081E00E9430056FEF74
:101FE00082E00E94300565E184E04DCC8B3609F03B
:101FF0004CCC60E08FE20E94300560E280E00E94FD
:10200000300560E081E00E94300561E082E00E94DE
:10201000300564E083E037CC6FEF0E9430056FEF4E
:1020200080914D040E9430056FEF80914E040E9414
:102030003005809147048B3609F03BCC6FEF87E089
:1020400036CC8FE891E00E94D607FFCF843009F0AC
:102050009CCD6DEF71E083E993E00E947B075FE028
:10206000581530F067EF71E083E993E00E947B0739
:1020700020E1B501A40183E993E00E948A076AE5A3
:1020800071E083E993E00E947B077FCD85E392E0D6
:102090000E94D6070115110509F442CD0E94930153
:1020A000882309F43BCD0E94000038CDA70196019A
:1020B0000E94B01249015A01880C991CAA1CBB1C31
:1020C00068CE81E892E0E4CF5058BB27AA270E944F
:1020D0007C100C94EF110E94E11138F00E94E8117D
:1020E00020F039F49F3F19F426F40C94DE110EF41D
:1020F000E095E7FB0C94D811E92F0E94001258F3E9
:10210000BA17620773078407950720F079F4A6F5DC
:102110000C9422120EF4E0950B2EBA2FA02D0B0179
:10212000B90190010C01CA01A0011124FF27591B1C
:1021300099F0593F50F4503E68F11A16F040A22F22
:10214000232F342F4427585FF3CF46953795279593
:10215000A795F0405395C9F77EF41F16BA0B620B92
:10216000730B840BBAF09150A1F0FF0FBB1F661FD9
:10217000771F881FC2F70EC0BA0F621F731F841F1C
:1021800048F4879577956795B795F7959E3F08F042
:10219000B0CF9395880F08F09927EE0F9795879504
:1021A00008950E94B41108F481E008950E94EA1095
:1021B0000C94EF110E94E81158F00E94E11140F0D8
:1021C00029F45F3F29F00C94D81151110C9423127B
:1021D0000C94DE110E94001268F39923B1F3552389
:1021E00091F3951B550BBB27AA276217730784072A
:1021F00038F09F5F5F4F220F331F441FAA1FA9F3C0
:1022000035D00E2E3AF0E0E832D091505040E695AD
:10221000001CCAF72BD0FE2F29D0660F771F881F0E
:10222000BB1F261737074807AB07B0E809F0BB0B01
:10223000802DBF01FF2793585F4F3AF09E3F510515
:1022400078F00C94D8110C9423125F3FE4F3983E7D
:10225000D4F3869577956795B795F7959F5FC9F7FE
:10226000880F911D9695879597F90895E1E0660F7F
:10227000771F881FBB1F621773078407BA0720F0F8
:10228000621B730B840BBA0BEE1F88F7E095089561
:102290000E94081288F09F5798F0B92F9927B751DC
:1022A000B0F0E1F0660F771F881F991F1AF0BA95FA
:1022B000C9F714C0B13091F00E942212B1E0089524
:1022C0000C942212672F782F8827B85F39F0B93F16
:1022D000CCF3869577956795B395D9F73EF49095AD
:1022E0008095709561957F4F8F4F9F4F0895E8942B
:1022F00009C097FB3EF490958095709561957F4F4E
:102300008F4F9F4F9923A9F0F92F96E9BB279395FB
:10231000F695879577956795B795F111F8CFFAF40B
:10232000BB0F11F460FF1BC06F5F7F4F8F4F9F4F3C
:1023300016C0882311F096E911C0772321F09EE89A
:10234000872F762F05C0662371F096E8862F70E000
:1023500060E02AF09A95660F771F881FDAF7880FDA
:102360009695879597F90895990F0008550FAA0B30
:10237000E0E8FEEF16161706E807F907C0F0121698
:102380001306E407F50798F0621B730B840B950B9B
:1023900039F40A2661F0232B242B252B21F40895F0
:1023A0000A2609F4A140A6958FEF811D811D08958D
:1023B00097F99F6780E870E060E008959FEF80ECF8
:1023C000089500240A94161617061806090608959B
:1023D00000240A9412161306140605060895092E01
:1023E0000394000C11F4882352F0BB0F40F4BF2B70
:1023F00011F460FF04C06F5F7F4F8F4F9F4F0895B0
:1024000057FD9058440F551F59F05F3F71F04795A5
:10241000880F97FB991F61F09F3F79F0879508958A
:10242000121613061406551FF2CF4695F1DF08C0A9
:10243000161617061806991FF1CF869571056105C6
:1024400008940895E894BB2766277727CB0197F96E
:1024500008950E94B41108F48FEF08950E9441126C
:102460000C94EF110E94E11138F00E94E81120F065
:10247000952311F00C94D8110C94DE1111240C94B6
:1024800023120E94001270F3959FC1F3950F50E044
:10249000551F629FF001729FBB27F00DB11D639F16
:1024A000AA27F00DB11DAA1F649F6627B00DA11DBC
:1024B000661F829F2227B00DA11D621F739FB00D62
:1024C000A11D621F839FA00D611D221F749F3327D2
:1024D000A00D611D231F849F600D211D822F762F6B
:1024E0006A2F11249F5750409AF0F1F088234AF048
:1024F000EE0FFF1FBB1F661F771F881F91505040B4
:10250000A9F79E3F510580F00C94D8110C9423122A
:102510005F3FE4F3983ED4F3869577956795B7953A
:10252000F795E7959F5FC1F7FE2B880F911D969554
:10253000879597F908950E94B411880B990B089517
:10254000DB018F939F930E94F112BF91AF91A29FE5
:10255000800D911DA39F900DB29F900D11240895A1
:10256000A1E21A2EAA1BBB1BFD010DC0AA1FBB1F97
:10257000EE1FFF1FA217B307E407F50720F0A21B09
:10258000B30BE40BF50B661F771F881F991F1A9476
:1025900069F760957095809590959B01AC01BD01A0
:1025A000CF010895052E97FB1EF400940E94E912B6
:1025B00057FD07D00E94B01207FC03D04EF40C94D4
:1025C000E91250954095309521953F4F4F4F5F4F01
:1025D000089590958095709561957F4F8F4F9F4F8F
:1025E00008950E940A13A59F900DB49F900DA49F7B
:1025F000800D911D11240895B7FF0C94F1120E94D3
:10260000F112821B930B0895EE0FFF1F0590F491BA
:10261000E02D0994A29FB001B39FC001A39F700D4C
:10262000811D1124911DB29F700D811D1124911DDA
:1026300008950F931F93CF93DF938230910510F489
:1026400082E090E0E0918704F091880430E020E09F
:10265000B0E0A0E0309799F42115310509F44AC0A3
:10266000281B390B24303105D8F58A819B816115EF
:10267000710589F1FB0193838283FE0111C04081C2
:1026800051810281138148175907E0F04817590713
:1026900099F4109761F012960C93129713961C936D
:1026A0003296CF01DF91CF911F910F910895009342
:1026B000870410938804F4CF2115310551F0421797
:1026C000530738F0A901DB019A01BD01DF01F801D0
:1026D000C1CFEF01F9CF9093880480938704CDCFC9
:1026E000FE01E20FF31F8193919322503109398348
:1026F0002883D7CF2091850430918604232B41F481
:1027000020910201309103013093860420938504C7
:1027100020910001309101012115310541F42DB7BF
:102720003EB74091040150910501241B350BE09107
:102730008504F0918604E217F307A0F42E1B3F0BEB
:102740002817390778F0AC014E5F5F4F2417350723
:1027500048F04E0F5F1F5093860440938504819389
:1027600091939FCFF0E0E0E09CCFCF93DF93009771
:10277000E9F0FC01329713821282A0918704B09194
:102780008804ED0130E020E01097A1F42081318130
:10279000820F931F209185043091860428173907F2
:1027A00009F061C0F0938604E0938504DF91CF9136
:1027B0000895EA01CE17DF07E8F54A815B819E01A3
:1027C00041155105B1F7E901FB83EA83499159911C
:1027D000C40FD51FEC17FD0761F48081918102962B
:1027E000840F951FE90199838883828193819B835C
:1027F0008A83F0E0E0E012968D919C911397009708
:10280000B9F52D913C911197CD010296820F931F3E
:1028100020918504309186042817390739F63097BE
:1028200051F51092880410928704B0938604A09307
:102830008504BCCFD383C28340815181840F951F0F
:10284000C817D90761F44E5F5F4F88819981480F9F
:10285000591F518340838A819B81938382832115F1
:10286000310509F0B0CFF0938804E09387049ECF40
:10287000FD01DC01C0CF13821282D7CF81E090E04E
:10288000F8940C944314F894FFCF0000890480005E
:10289000000040001400540000000000C90129019C
:1028A0005601160287016501790100000000FE044F
:1028B000D1041106A704CA04B704A804000000004C
:1028C000F90529011106100600000000730729010F
:1028D00011061006000000006A02D90827019406BC
:1028E0001406B3050D0A006E616E00696E66006F16
:1028F0007666000A493243205363616E6E6572004A
:1029000050726573737572653A200054656D706519
:102910007261747572653A2000626567696E282974
:10292000206661696C65642E20436865636B20795D
:102930006F757220424D5031383020496E74657287
:102940006661636520616E6420493243204164649E
:10295000726573732E005363616E6E696E672E2EFF
:102960002E004932432064657669636520666F7581
:102970006E642061742061646472657373203078C2
:1029800000300020202100556E6B6E6F776E206541
:1029900072726F7220617420616464726573732057
:1029A0003078004E6F204932432064657669636554
:1029B0007320666F756E640A00646F6E650A00436B
:1029C0006F756C64206E6F74207374617274207004
:1029D00072657373757265206D6561737572656D6F
:1029E000656E742C2069732061206D65617375724A
:1029F000656D656E7420616C7265616479207275B5
:102A00006E6E696E673F0020506100436F756C64A5
:102A1000206E6F742073746172742074656D7065BC
:102A2000726174757265206D6561737572656D652F
:102A30006E742C2069732061206D656173757265F9
:102A40006D656E7420616C72656164792072756E5B
:0A2A50006E696E673F00204300002E
:107E0000112484B714BE81FFF0D085E080938100F7
:107E100082E08093C00088E18093C10086E0809377
:107E2000C20080E18093C4008EE0C9D0259A86E02C
:107E300020E33CEF91E0309385002093840096BBD3
:107E4000B09BFECF1D9AA8958150A9F7CC24DD24C4
:107E500088248394B5E0AB2EA1E19A2EF3E0BF2EE7
:107E6000A2D0813461F49FD0082FAFD0023811F036
:107E7000013811F484E001C083E08DD089C08234E0
:107E800011F484E103C0853419F485E0A6D080C0E4
:107E9000853579F488D0E82EFF2485D0082F10E0AE
:107EA000102F00270E291F29000F111F8ED06801E7
:107EB0006FC0863521F484E090D080E0DECF843638
:107EC00009F040C070D06FD0082F6DD080E0C81688
:107ED00080E7D80618F4F601B7BEE895C0E0D1E017
:107EE00062D089930C17E1F7F0E0CF16F0E7DF06D8
:107EF00018F0F601B7BEE89568D007B600FCFDCFD4
:107F0000A601A0E0B1E02C9130E011968C91119780
:107F100090E0982F8827822B932B1296FA010C0160
:107F200087BEE89511244E5F5F4FF1E0A038BF0790
:107F300051F7F601A7BEE89507B600FCFDCF97BE46
:107F4000E89526C08437B1F42ED02DD0F82E2BD052
:107F50003CD0F601EF2C8F010F5F1F4F84911BD097
:107F6000EA94F801C1F70894C11CD11CFA94CF0C13
:107F7000D11C0EC0853739F428D08EE10CD085E9AC
:107F80000AD08FE07ACF813511F488E018D01DD067
:107F900080E101D065CF982F8091C00085FFFCCF94
:107FA0009093C60008958091C00087FFFCCF809118
:107FB000C00084FD01C0A8958091C6000895E0E648
:107FC000F0E098E1908380830895EDDF803219F02E
:107FD00088E0F5DFFFCF84E1DECF1F93182FE3DFCA
:107FE0001150E9F7F2DF1F91089580E0E8DFEE27F6
:047FF000FF270994CA
:027FFE00040479
:00000001FF
